{
  "contractName": "EternalEntities",
  "abi": [
    {
      "inputs": [
        {
          "internalType": "string",
          "name": "baseUri",
          "type": "string"
        }
      ],
      "stateMutability": "nonpayable",
      "type": "constructor"
    },
    {
      "anonymous": false,
      "inputs": [
        {
          "indexed": true,
          "internalType": "address",
          "name": "owner",
          "type": "address"
        },
        {
          "indexed": true,
          "internalType": "address",
          "name": "approved",
          "type": "address"
        },
        {
          "indexed": true,
          "internalType": "uint256",
          "name": "tokenId",
          "type": "uint256"
        }
      ],
      "name": "Approval",
      "type": "event"
    },
    {
      "anonymous": false,
      "inputs": [
        {
          "indexed": true,
          "internalType": "address",
          "name": "owner",
          "type": "address"
        },
        {
          "indexed": true,
          "internalType": "address",
          "name": "operator",
          "type": "address"
        },
        {
          "indexed": false,
          "internalType": "bool",
          "name": "approved",
          "type": "bool"
        }
      ],
      "name": "ApprovalForAll",
      "type": "event"
    },
    {
      "anonymous": false,
      "inputs": [
        {
          "indexed": true,
          "internalType": "address",
          "name": "previousOwner",
          "type": "address"
        },
        {
          "indexed": true,
          "internalType": "address",
          "name": "newOwner",
          "type": "address"
        }
      ],
      "name": "OwnershipTransferred",
      "type": "event"
    },
    {
      "anonymous": false,
      "inputs": [
        {
          "indexed": true,
          "internalType": "address",
          "name": "from",
          "type": "address"
        },
        {
          "indexed": true,
          "internalType": "address",
          "name": "to",
          "type": "address"
        },
        {
          "indexed": true,
          "internalType": "uint256",
          "name": "tokenId",
          "type": "uint256"
        }
      ],
      "name": "Transfer",
      "type": "event"
    },
    {
      "inputs": [],
      "name": "BaseURI",
      "outputs": [
        {
          "internalType": "string",
          "name": "",
          "type": "string"
        }
      ],
      "stateMutability": "view",
      "type": "function",
      "constant": true
    },
    {
      "inputs": [
        {
          "internalType": "address",
          "name": "",
          "type": "address"
        }
      ],
      "name": "FreeMinted",
      "outputs": [
        {
          "internalType": "uint256",
          "name": "",
          "type": "uint256"
        }
      ],
      "stateMutability": "view",
      "type": "function",
      "constant": true
    },
    {
      "inputs": [],
      "name": "NrOfAddressesInWhitelist",
      "outputs": [
        {
          "internalType": "uint256",
          "name": "",
          "type": "uint256"
        }
      ],
      "stateMutability": "view",
      "type": "function",
      "constant": true
    },
    {
      "inputs": [],
      "name": "PresaleStarted",
      "outputs": [
        {
          "internalType": "bool",
          "name": "",
          "type": "bool"
        }
      ],
      "stateMutability": "view",
      "type": "function",
      "constant": true
    },
    {
      "inputs": [
        {
          "internalType": "address",
          "name": "",
          "type": "address"
        }
      ],
      "name": "PresaleWhitelist",
      "outputs": [
        {
          "internalType": "bool",
          "name": "",
          "type": "bool"
        }
      ],
      "stateMutability": "view",
      "type": "function",
      "constant": true
    },
    {
      "inputs": [],
      "name": "PublicSaleStarted",
      "outputs": [
        {
          "internalType": "bool",
          "name": "",
          "type": "bool"
        }
      ],
      "stateMutability": "view",
      "type": "function",
      "constant": true
    },
    {
      "inputs": [
        {
          "internalType": "address",
          "name": "",
          "type": "address"
        }
      ],
      "name": "TotalMinted",
      "outputs": [
        {
          "internalType": "uint256",
          "name": "",
          "type": "uint256"
        }
      ],
      "stateMutability": "view",
      "type": "function",
      "constant": true
    },
    {
      "inputs": [
        {
          "internalType": "address",
          "name": "to",
          "type": "address"
        },
        {
          "internalType": "uint256",
          "name": "tokenId",
          "type": "uint256"
        }
      ],
      "name": "approve",
      "outputs": [],
      "stateMutability": "nonpayable",
      "type": "function"
    },
    {
      "inputs": [
        {
          "internalType": "address",
          "name": "owner",
          "type": "address"
        }
      ],
      "name": "balanceOf",
      "outputs": [
        {
          "internalType": "uint256",
          "name": "",
          "type": "uint256"
        }
      ],
      "stateMutability": "view",
      "type": "function",
      "constant": true
    },
    {
      "inputs": [],
      "name": "freeMintAvailable",
      "outputs": [
        {
          "internalType": "uint256",
          "name": "",
          "type": "uint256"
        }
      ],
      "stateMutability": "view",
      "type": "function",
      "constant": true
    },
    {
      "inputs": [
        {
          "internalType": "uint256",
          "name": "tokenId",
          "type": "uint256"
        }
      ],
      "name": "getApproved",
      "outputs": [
        {
          "internalType": "address",
          "name": "",
          "type": "address"
        }
      ],
      "stateMutability": "view",
      "type": "function",
      "constant": true
    },
    {
      "inputs": [
        {
          "internalType": "address",
          "name": "owner",
          "type": "address"
        },
        {
          "internalType": "address",
          "name": "operator",
          "type": "address"
        }
      ],
      "name": "isApprovedForAll",
      "outputs": [
        {
          "internalType": "bool",
          "name": "",
          "type": "bool"
        }
      ],
      "stateMutability": "view",
      "type": "function",
      "constant": true
    },
    {
      "inputs": [],
      "name": "maxSupply",
      "outputs": [
        {
          "internalType": "uint256",
          "name": "",
          "type": "uint256"
        }
      ],
      "stateMutability": "view",
      "type": "function",
      "constant": true
    },
    {
      "inputs": [],
      "name": "mintLimit",
      "outputs": [
        {
          "internalType": "uint256",
          "name": "",
          "type": "uint256"
        }
      ],
      "stateMutability": "view",
      "type": "function",
      "constant": true
    },
    {
      "inputs": [],
      "name": "mintPrice",
      "outputs": [
        {
          "internalType": "uint256",
          "name": "",
          "type": "uint256"
        }
      ],
      "stateMutability": "view",
      "type": "function",
      "constant": true
    },
    {
      "inputs": [],
      "name": "name",
      "outputs": [
        {
          "internalType": "string",
          "name": "",
          "type": "string"
        }
      ],
      "stateMutability": "view",
      "type": "function",
      "constant": true
    },
    {
      "inputs": [],
      "name": "owner",
      "outputs": [
        {
          "internalType": "address",
          "name": "",
          "type": "address"
        }
      ],
      "stateMutability": "view",
      "type": "function",
      "constant": true
    },
    {
      "inputs": [
        {
          "internalType": "uint256",
          "name": "tokenId",
          "type": "uint256"
        }
      ],
      "name": "ownerOf",
      "outputs": [
        {
          "internalType": "address",
          "name": "",
          "type": "address"
        }
      ],
      "stateMutability": "view",
      "type": "function",
      "constant": true
    },
    {
      "inputs": [],
      "name": "presaleMintLimit",
      "outputs": [
        {
          "internalType": "uint256",
          "name": "",
          "type": "uint256"
        }
      ],
      "stateMutability": "view",
      "type": "function",
      "constant": true
    },
    {
      "inputs": [],
      "name": "renounceOwnership",
      "outputs": [],
      "stateMutability": "nonpayable",
      "type": "function"
    },
    {
      "inputs": [],
      "name": "reserveClaimed",
      "outputs": [
        {
          "internalType": "uint256",
          "name": "",
          "type": "uint256"
        }
      ],
      "stateMutability": "view",
      "type": "function",
      "constant": true
    },
    {
      "inputs": [],
      "name": "reserveLimit",
      "outputs": [
        {
          "internalType": "uint256",
          "name": "",
          "type": "uint256"
        }
      ],
      "stateMutability": "view",
      "type": "function",
      "constant": true
    },
    {
      "inputs": [
        {
          "internalType": "address",
          "name": "from",
          "type": "address"
        },
        {
          "internalType": "address",
          "name": "to",
          "type": "address"
        },
        {
          "internalType": "uint256",
          "name": "tokenId",
          "type": "uint256"
        }
      ],
      "name": "safeTransferFrom",
      "outputs": [],
      "stateMutability": "nonpayable",
      "type": "function"
    },
    {
      "inputs": [
        {
          "internalType": "address",
          "name": "from",
          "type": "address"
        },
        {
          "internalType": "address",
          "name": "to",
          "type": "address"
        },
        {
          "internalType": "uint256",
          "name": "tokenId",
          "type": "uint256"
        },
        {
          "internalType": "bytes",
          "name": "_data",
          "type": "bytes"
        }
      ],
      "name": "safeTransferFrom",
      "outputs": [],
      "stateMutability": "nonpayable",
      "type": "function"
    },
    {
      "inputs": [
        {
          "internalType": "address",
          "name": "operator",
          "type": "address"
        },
        {
          "internalType": "bool",
          "name": "approved",
          "type": "bool"
        }
      ],
      "name": "setApprovalForAll",
      "outputs": [],
      "stateMutability": "nonpayable",
      "type": "function"
    },
    {
      "inputs": [
        {
          "internalType": "bytes4",
          "name": "interfaceId",
          "type": "bytes4"
        }
      ],
      "name": "supportsInterface",
      "outputs": [
        {
          "internalType": "bool",
          "name": "",
          "type": "bool"
        }
      ],
      "stateMutability": "view",
      "type": "function",
      "constant": true
    },
    {
      "inputs": [],
      "name": "symbol",
      "outputs": [
        {
          "internalType": "string",
          "name": "",
          "type": "string"
        }
      ],
      "stateMutability": "view",
      "type": "function",
      "constant": true
    },
    {
      "inputs": [
        {
          "internalType": "uint256",
          "name": "index",
          "type": "uint256"
        }
      ],
      "name": "tokenByIndex",
      "outputs": [
        {
          "internalType": "uint256",
          "name": "",
          "type": "uint256"
        }
      ],
      "stateMutability": "view",
      "type": "function",
      "constant": true
    },
    {
      "inputs": [
        {
          "internalType": "address",
          "name": "owner",
          "type": "address"
        },
        {
          "internalType": "uint256",
          "name": "index",
          "type": "uint256"
        }
      ],
      "name": "tokenOfOwnerByIndex",
      "outputs": [
        {
          "internalType": "uint256",
          "name": "",
          "type": "uint256"
        }
      ],
      "stateMutability": "view",
      "type": "function",
      "constant": true
    },
    {
      "inputs": [
        {
          "internalType": "uint256",
          "name": "tokenId",
          "type": "uint256"
        }
      ],
      "name": "tokenURI",
      "outputs": [
        {
          "internalType": "string",
          "name": "",
          "type": "string"
        }
      ],
      "stateMutability": "view",
      "type": "function",
      "constant": true
    },
    {
      "inputs": [],
      "name": "totalSupply",
      "outputs": [
        {
          "internalType": "uint256",
          "name": "",
          "type": "uint256"
        }
      ],
      "stateMutability": "view",
      "type": "function",
      "constant": true
    },
    {
      "inputs": [
        {
          "internalType": "address",
          "name": "from",
          "type": "address"
        },
        {
          "internalType": "address",
          "name": "to",
          "type": "address"
        },
        {
          "internalType": "uint256",
          "name": "tokenId",
          "type": "uint256"
        }
      ],
      "name": "transferFrom",
      "outputs": [],
      "stateMutability": "nonpayable",
      "type": "function"
    },
    {
      "inputs": [
        {
          "internalType": "address",
          "name": "newOwner",
          "type": "address"
        }
      ],
      "name": "transferOwnership",
      "outputs": [],
      "stateMutability": "nonpayable",
      "type": "function"
    },
    {
      "inputs": [
        {
          "internalType": "uint256",
          "name": "nr",
          "type": "uint256"
        }
      ],
      "name": "Reserve",
      "outputs": [],
      "stateMutability": "nonpayable",
      "type": "function"
    },
    {
      "inputs": [],
      "name": "FreeMint",
      "outputs": [],
      "stateMutability": "nonpayable",
      "type": "function"
    },
    {
      "inputs": [
        {
          "internalType": "uint256",
          "name": "nr",
          "type": "uint256"
        }
      ],
      "name": "PublicMint",
      "outputs": [],
      "stateMutability": "payable",
      "type": "function",
      "payable": true
    },
    {
      "inputs": [
        {
          "internalType": "uint256",
          "name": "nr",
          "type": "uint256"
        }
      ],
      "name": "PresaleMint",
      "outputs": [],
      "stateMutability": "payable",
      "type": "function",
      "payable": true
    },
    {
      "inputs": [],
      "name": "TransferEth",
      "outputs": [],
      "stateMutability": "nonpayable",
      "type": "function"
    },
    {
      "inputs": [],
      "name": "TogglePresaleStarted",
      "outputs": [],
      "stateMutability": "nonpayable",
      "type": "function"
    },
    {
      "inputs": [],
      "name": "TogglePublicSaleStarted",
      "outputs": [],
      "stateMutability": "nonpayable",
      "type": "function"
    },
    {
      "inputs": [
        {
          "internalType": "string",
          "name": "baseUri",
          "type": "string"
        }
      ],
      "name": "SetBaseUri",
      "outputs": [],
      "stateMutability": "nonpayable",
      "type": "function"
    },
    {
      "inputs": [
        {
          "internalType": "uint256",
          "name": "_newPrice",
          "type": "uint256"
        }
      ],
      "name": "setPrice",
      "outputs": [],
      "stateMutability": "nonpayable",
      "type": "function"
    },
    {
      "inputs": [
        {
          "internalType": "address[]",
          "name": "addresses",
          "type": "address[]"
        }
      ],
      "name": "AddToWhitelist",
      "outputs": [],
      "stateMutability": "nonpayable",
      "type": "function"
    },
    {
      "inputs": [
        {
          "internalType": "address[]",
          "name": "addresses",
          "type": "address[]"
        }
      ],
      "name": "RemoveFromWhitelist",
      "outputs": [],
      "stateMutability": "nonpayable",
      "type": "function"
    },
    {
      "inputs": [
        {
          "internalType": "uint256",
          "name": "amount",
          "type": "uint256"
        }
      ],
      "name": "UpdateFreeMintAvailable",
      "outputs": [],
      "stateMutability": "nonpayable",
      "type": "function"
    },
    {
      "inputs": [
        {
          "internalType": "address",
          "name": "account",
          "type": "address"
        }
      ],
      "name": "IsOnWhitelist",
      "outputs": [
        {
          "internalType": "bool",
          "name": "",
          "type": "bool"
        }
      ],
      "stateMutability": "view",
      "type": "function",
      "constant": true
    },
    {
      "inputs": [],
      "name": "WhatDoesThisDoExactly",
      "outputs": [],
      "stateMutability": "nonpayable",
      "type": "function"
    }
  ],
  "bytecode": "0x608060405267016345785d8a0000600c553480156200001d57600080fd5b5060405162002f2738038062002f278339810160408190526200004091620001f8565b604080518082018252600f81526e457465726e616c456e74697469657360881b602080830191825283518085019094526002845261454560f01b90840152815191929162000091916000916200013c565b508051620000a79060019060208401906200013c565b505050620000c4620000be620000e660201b60201c565b620000ea565b6001600b558051620000de9060149060208401906200013c565b505062000311565b3390565b600a80546001600160a01b038381166001600160a01b0319831681179093556040519116919082907f8be0079c531659141344cd1fd0a4f28419497f9722a3daafe3b4186f6b6457e090600090a35050565b8280546200014a90620002d4565b90600052602060002090601f0160209004810192826200016e5760008555620001b9565b82601f106200018957805160ff1916838001178555620001b9565b82800160010185558215620001b9579182015b82811115620001b95782518255916020019190600101906200019c565b50620001c7929150620001cb565b5090565b5b80821115620001c75760008155600101620001cc565b634e487b7160e01b600052604160045260246000fd5b600060208083850312156200020c57600080fd5b82516001600160401b03808211156200022457600080fd5b818501915085601f8301126200023957600080fd5b8151818111156200024e576200024e620001e2565b604051601f8201601f19908116603f01168101908382118183101715620002795762000279620001e2565b8160405282815288868487010111156200029257600080fd5b600093505b82841015620002b6578484018601518185018701529285019262000297565b82841115620002c85760008684830101525b98975050505050505050565b600181811c90821680620002e957607f821691505b602082108114156200030b57634e487b7160e01b600052602260045260246000fd5b50919050565b612c0680620003216000396000f3fe6080604052600436106102885760003560e01c806370a082311161015a5780639fb17e34116100c1578063d5abeb011161007a578063d5abeb011461075d578063db7b64a814610773578063e8695ff414610793578063e985e9c5146107a8578063f2fde38b146107f1578063ffcc43c41461081157600080fd5b80639fb17e34146106b7578063a22cb465146106ca578063af27073e146106ea578063afa35f42146106fd578063b88d4fde1461071d578063c87b56dd1461073d57600080fd5b806384e369f91161011357806384e369f9146106165780638da5cb5b1461062b578063903d27991461064957806391b7f5ed1461068257806395d89b41146106a2578063996517cf146105e157600080fd5b806370a082311461055d578063715018a61461057d5780637c77311a146105925780637f61feaf146105c2578063802e5cb3146105e157806384d1079e146105f657600080fd5b80632931cfd9116101fe5780635c18e958116101b75780635c18e958146104d15780635d3512a9146104e75780636178ce56146104fd5780636352211e1461051257806367e154e5146105325780636817c76c1461054757600080fd5b80632931cfd9146104015780632932f9ac1461042e5780632f745c591461044457806342842e0e1461046457806346fb583d146104845780634f6ccce7146104b157600080fd5b80631416059c116102505780631416059c1461035357806317c333811461037357806318160ddd1461038d57806321e7345e146103ac57806323b872dd146103c157806328c4dd0c146103e157600080fd5b806301ffc9a71461028d57806306fdde03146102c2578063081812fc146102e4578063095ea7b31461031c5780630ba5ce821461033e575b600080fd5b34801561029957600080fd5b506102ad6102a8366004612556565b610826565b60405190151581526020015b60405180910390f35b3480156102ce57600080fd5b506102d7610851565b6040516102b991906125cb565b3480156102f057600080fd5b506103046102ff3660046125de565b6108e3565b6040516001600160a01b0390911681526020016102b9565b34801561032857600080fd5b5061033c610337366004612613565b61097d565b005b34801561034a57600080fd5b5061033c610a93565b34801561035f57600080fd5b5061033c61036e366004612684565b610bbf565b34801561037f57600080fd5b50600f546102ad9060ff1681565b34801561039957600080fd5b506008545b6040519081526020016102b9565b3480156103b857600080fd5b5061039e60c881565b3480156103cd57600080fd5b5061033c6103dc366004612731565b610c7b565b3480156103ed57600080fd5b5061033c6103fc366004612684565b610cac565b34801561040d57600080fd5b5061039e61041c36600461276d565b60116020526000908152604090205481565b34801561043a57600080fd5b5061039e60135481565b34801561045057600080fd5b5061039e61045f366004612613565b610d64565b34801561047057600080fd5b5061033c61047f366004612731565b610dfa565b34801561049057600080fd5b5061039e61049f36600461276d565b60106020526000908152604090205481565b3480156104bd57600080fd5b5061039e6104cc3660046125de565b610e15565b3480156104dd57600080fd5b5061039e600e5481565b3480156104f357600080fd5b5061039e600d5481565b34801561050957600080fd5b5061033c610ea8565b34801561051e57600080fd5b5061030461052d3660046125de565b610eef565b34801561053e57600080fd5b5061033c610f66565b34801561055357600080fd5b5061039e600c5481565b34801561056957600080fd5b5061039e61057836600461276d565b610fa4565b34801561058957600080fd5b5061033c61102b565b34801561059e57600080fd5b506102ad6105ad36600461276d565b60126020526000908152604090205460ff1681565b3480156105ce57600080fd5b50600f546102ad90610100900460ff1681565b3480156105ed57600080fd5b5061039e600581565b34801561060257600080fd5b5061033c6106113660046125de565b611061565b34801561062257600080fd5b5061033c6110a5565b34801561063757600080fd5b50600a546001600160a01b0316610304565b34801561065557600080fd5b506102ad61066436600461276d565b6001600160a01b031660009081526012602052604090205460ff1690565b34801561068e57600080fd5b5061033c61069d3660046125de565b6111b7565b3480156106ae57600080fd5b506102d76111e6565b61033c6106c53660046125de565b6111f5565b3480156106d657600080fd5b5061033c6106e5366004612788565b6113a3565b61033c6106f83660046125de565b611468565b34801561070957600080fd5b5061033c61071836600461281c565b611541565b34801561072957600080fd5b5061033c610738366004612865565b61157e565b34801561074957600080fd5b506102d76107583660046125de565b6115b6565b34801561076957600080fd5b5061039e61271081565b34801561077f57600080fd5b5061033c61078e3660046125de565b611691565b34801561079f57600080fd5b5061033c61173c565b3480156107b457600080fd5b506102ad6107c33660046128e1565b6001600160a01b03918216600090815260056020908152604080832093909416825291909152205460ff1690565b3480156107fd57600080fd5b5061033c61080c36600461276d565b611882565b34801561081d57600080fd5b506102d761191a565b60006001600160e01b0319821663780e9d6360e01b148061084b575061084b826119a8565b92915050565b60606000805461086090612914565b80601f016020809104026020016040519081016040528092919081815260200182805461088c90612914565b80156108d95780601f106108ae576101008083540402835291602001916108d9565b820191906000526020600020905b8154815290600101906020018083116108bc57829003601f168201915b5050505050905090565b6000818152600260205260408120546001600160a01b03166109615760405162461bcd60e51b815260206004820152602c60248201527f4552433732313a20617070726f76656420717565727920666f72206e6f6e657860448201526b34b9ba32b73a103a37b5b2b760a11b60648201526084015b60405180910390fd5b506000908152600460205260409020546001600160a01b031690565b600061098882610eef565b9050806001600160a01b0316836001600160a01b031614156109f65760405162461bcd60e51b815260206004820152602160248201527f4552433732313a20617070726f76616c20746f2063757272656e74206f776e656044820152603960f91b6064820152608401610958565b336001600160a01b0382161480610a125750610a1281336107c3565b610a845760405162461bcd60e51b815260206004820152603860248201527f4552433732313a20617070726f76652063616c6c6572206973206e6f74206f7760448201527f6e6572206e6f7220617070726f76656420666f7220616c6c00000000000000006064820152608401610958565b610a8e83836119f8565b505050565b600a546001600160a01b03163314610abd5760405162461bcd60e51b81526004016109589061294f565b60004711610afe5760405162461bcd60e51b815260206004820152600e60248201526d139bc8195d1a081c1c995cd95b9d60921b6044820152606401610958565b6000610b12600a546001600160a01b031690565b6001600160a01b03164760405160006040518083038185875af1925050503d8060008114610b5c576040519150601f19603f3d011682016040523d82523d6000602084013e610b61565b606091505b5050905080610bbc5760405162461bcd60e51b815260206004820152602160248201527f5472616e7366657220746f206f776e65722061646472657373206661696c65646044820152601760f91b6064820152608401610958565b50565b600a546001600160a01b03163314610be95760405162461bcd60e51b81526004016109589061294f565b60005b8151811015610c7757600160126000848481518110610c0d57610c0d612984565b60200260200101516001600160a01b03166001600160a01b0316815260200190815260200160002060006101000a81548160ff021916908315150217905550600160136000828254610c5f91906129b0565b90915550819050610c6f816129c8565b915050610bec565b5050565b610c853382611a66565b610ca15760405162461bcd60e51b8152600401610958906129e3565b610a8e838383611b5d565b600a546001600160a01b03163314610cd65760405162461bcd60e51b81526004016109589061294f565b60005b8151811015610c7757600060126000848481518110610cfa57610cfa612984565b60200260200101516001600160a01b03166001600160a01b0316815260200190815260200160002060006101000a81548160ff021916908315150217905550600160136000828254610d4c9190612a34565b90915550819050610d5c816129c8565b915050610cd9565b6000610d6f83610fa4565b8210610dd15760405162461bcd60e51b815260206004820152602b60248201527f455243373231456e756d657261626c653a206f776e657220696e646578206f7560448201526a74206f6620626f756e647360a81b6064820152608401610958565b506001600160a01b03919091166000908152600660209081526040808320938352929052205490565b610a8e8383836040518060200160405280600081525061157e565b6000610e2060085490565b8210610e835760405162461bcd60e51b815260206004820152602c60248201527f455243373231456e756d657261626c653a20676c6f62616c20696e646578206f60448201526b7574206f6620626f756e647360a01b6064820152608401610958565b60088281548110610e9657610e96612984565b90600052602060002001549050919050565b600a546001600160a01b03163314610ed25760405162461bcd60e51b81526004016109589061294f565b600f805461ff001981166101009182900460ff1615909102179055565b6000818152600260205260408120546001600160a01b03168061084b5760405162461bcd60e51b815260206004820152602960248201527f4552433732313a206f776e657220717565727920666f72206e6f6e657869737460448201526832b73a103a37b5b2b760b91b6064820152608401610958565b600a546001600160a01b03163314610f905760405162461bcd60e51b81526004016109589061294f565b600f805460ff19811660ff90911615179055565b60006001600160a01b03821661100f5760405162461bcd60e51b815260206004820152602a60248201527f4552433732313a2062616c616e636520717565727920666f7220746865207a65604482015269726f206164647265737360b01b6064820152608401610958565b506001600160a01b031660009081526003602052604090205490565b600a546001600160a01b031633146110555760405162461bcd60e51b81526004016109589061294f565b61105f6000611d08565b565b600a546001600160a01b0316331461108b5760405162461bcd60e51b81526004016109589061294f565b80600e600082825461109d91906129b0565b909155505050565b6002600b5414156110c85760405162461bcd60e51b815260040161095890612a4b565b6002600b55601554600a116111185760405162461bcd60e51b8152602060048201526016602482015275546f6f206c617465206d6f746865726675636b65722160501b6044820152606401610958565b3360009081526012602052604090205460ff16156111635760405162461bcd60e51b81526020600482015260086024820152670c2d040c2d040c2d60c31b6044820152606401610958565b60016015600082825461117691906129b0565b9250508190555060016013600082825461119091906129b0565b9091555050336000908152601260205260409020805460ff19166001908117909155600b55565b600a546001600160a01b031633146111e15760405162461bcd60e51b81526004016109589061294f565b600c55565b60606001805461086090612914565b6002600b5414156112185760405162461bcd60e51b815260040161095890612a4b565b6002600b55600f54610100900460ff166112745760405162461bcd60e51b815260206004820152601c60248201527f5075626c6963206d696e74696e67206973206e6f7420616374697665000000006044820152606401610958565b60058111156112c55760405162461bcd60e51b815260206004820152601d60248201527f43616e6e6f74206d696e74206d6f7265207468616e20616c6c6f7765640000006044820152606401610958565b336000908152601060205260409020546005906112e39083906129b0565b111561133d5760405162461bcd60e51b8152602060048201526024808201527f4d696e742065786365656473206d617820616c6c6f77656420706572206164646044820152637265737360e01b6064820152608401610958565b80600c5461134b9190612a82565b3410156113905760405162461bcd60e51b8152602060048201526013602482015272139bdd08195b9bdd59da08195d1a081cd95b99606a1b6044820152606401610958565b61139b816000611d5a565b506001600b55565b6001600160a01b0382163314156113fc5760405162461bcd60e51b815260206004820152601960248201527f4552433732313a20617070726f766520746f2063616c6c6572000000000000006044820152606401610958565b3360008181526005602090815260408083206001600160a01b03871680855290835292819020805460ff191686151590811790915590519081529192917f17307eab39ab6107e8899845ad3d59bd9653f200f220920489ca2b5937696c31910160405180910390a35050565b6002600b54141561148b5760405162461bcd60e51b815260040161095890612a4b565b6002600b55600f5460ff166114e25760405162461bcd60e51b815260206004820152601d60248201527f50726573616c65206d696e74696e67206973206e6f74206163746976650000006044820152606401610958565b3360009081526012602052604090205460ff166112745760405162461bcd60e51b815260206004820152601860248201527f596f7520617265206e6f742077686974656c69737465642100000000000000006044820152606401610958565b600a546001600160a01b0316331461156b5760405162461bcd60e51b81526004016109589061294f565b8051610c779060149060208401906124a7565b6115883383611a66565b6115a45760405162461bcd60e51b8152600401610958906129e3565b6115b084848484611e77565b50505050565b6000818152600260205260409020546060906001600160a01b03166116355760405162461bcd60e51b815260206004820152602f60248201527f4552433732314d657461646174613a2055524920717565727920666f72206e6f60448201526e3732bc34b9ba32b73a103a37b5b2b760891b6064820152608401610958565b600061163f611eaa565b9050600081511161165f576040518060200160405280600081525061168a565b8061166984611eb9565b60405160200161167a929190612aa1565b6040516020818303038152906040525b9392505050565b600a546001600160a01b031633146116bb5760405162461bcd60e51b81526004016109589061294f565b60c881600d546116cb91906129b0565b11156117195760405162461bcd60e51b815260206004820181905260248201527f43616e6e6f742072657365727665206d6f7265207468616e20616c6c6f7765646044820152606401610958565b80600d600082825461172b91906129b0565b90915550610bbc9050816000611d5a565b6002600b54141561175f5760405162461bcd60e51b815260040161095890612a4b565b6002600b55600e546117b35760405162461bcd60e51b815260206004820152601760248201527f4e6f2066726565206d696e747320617661696c61626c650000000000000000006044820152606401610958565b336000908152601160205260409020546001906117d090826129b0565b11156118305760405162461bcd60e51b815260206004820152602960248201527f4d696e742065786365656473206d6178206f66203120616c6c6f77656420706560448201526872206164647265737360b81b6064820152608401610958565b3360009081526011602052604081208054600192906118509084906129b0565b925050819055506001600e600082825461186a9190612a34565b9091555061187b9050600180611d5a565b6001600b55565b600a546001600160a01b031633146118ac5760405162461bcd60e51b81526004016109589061294f565b6001600160a01b0381166119115760405162461bcd60e51b815260206004820152602660248201527f4f776e61626c653a206e6577206f776e657220697320746865207a65726f206160448201526564647265737360d01b6064820152608401610958565b610bbc81611d08565b6014805461192790612914565b80601f016020809104026020016040519081016040528092919081815260200182805461195390612914565b80156119a05780601f10611975576101008083540402835291602001916119a0565b820191906000526020600020905b81548152906001019060200180831161198357829003601f168201915b505050505081565b60006001600160e01b031982166380ac58cd60e01b14806119d957506001600160e01b03198216635b5e139f60e01b145b8061084b57506301ffc9a760e01b6001600160e01b031983161461084b565b600081815260046020526040902080546001600160a01b0319166001600160a01b0384169081179091558190611a2d82610eef565b6001600160a01b03167f8c5be1e5ebec7d5bd14f71427d1e84f3dd0314c0f7b2291e5b200ac8c7c3b92560405160405180910390a45050565b6000818152600260205260408120546001600160a01b0316611adf5760405162461bcd60e51b815260206004820152602c60248201527f4552433732313a206f70657261746f7220717565727920666f72206e6f6e657860448201526b34b9ba32b73a103a37b5b2b760a11b6064820152608401610958565b6000611aea83610eef565b9050806001600160a01b0316846001600160a01b03161480611b255750836001600160a01b0316611b1a846108e3565b6001600160a01b0316145b80611b5557506001600160a01b0380821660009081526005602090815260408083209388168352929052205460ff165b949350505050565b826001600160a01b0316611b7082610eef565b6001600160a01b031614611bd85760405162461bcd60e51b815260206004820152602960248201527f4552433732313a207472616e73666572206f6620746f6b656e2074686174206960448201526839903737ba1037bbb760b91b6064820152608401610958565b6001600160a01b038216611c3a5760405162461bcd60e51b8152602060048201526024808201527f4552433732313a207472616e7366657220746f20746865207a65726f206164646044820152637265737360e01b6064820152608401610958565b611c45838383611fb7565b611c506000826119f8565b6001600160a01b0383166000908152600360205260408120805460019290611c79908490612a34565b90915550506001600160a01b0382166000908152600360205260408120805460019290611ca79084906129b0565b909155505060008181526002602052604080822080546001600160a01b0319166001600160a01b0386811691821790925591518493918716917fddf252ad1be2c89b69c2b068fc378daa952ba7f163c4a11628f55a4df523b3ef91a4505050565b600a80546001600160a01b038381166001600160a01b0319831681179093556040519116919082907f8be0079c531659141344cd1fd0a4f28419497f9722a3daafe3b4186f6b6457e090600090a35050565b612710611d6660085490565b10611db35760405162461bcd60e51b815260206004820152601b60248201527f416c6c20746f6b656e732068617665206265656e206d696e74656400000000006044820152606401610958565b61271082611dc060085490565b611dca91906129b0565b1115611e185760405162461bcd60e51b815260206004820152601c60248201527f596f752063616e6e6f7420657863656564206d617820737570706c79000000006044820152606401610958565b60005b82811015610a8e5781611e4e57336000908152601060205260408120805460019290611e489084906129b0565b90915550505b611e6533600854611e609060016129b0565b61206f565b80611e6f816129c8565b915050611e1b565b611e82848484611b5d565b611e8e84848484612089565b6115b05760405162461bcd60e51b815260040161095890612ad0565b60606014805461086090612914565b606081611edd5750506040805180820190915260018152600360fc1b602082015290565b8160005b8115611f075780611ef1816129c8565b9150611f009050600a83612b38565b9150611ee1565b60008167ffffffffffffffff811115611f2257611f2261263d565b6040519080825280601f01601f191660200182016040528015611f4c576020820181803683370190505b5090505b8415611b5557611f61600183612a34565b9150611f6e600a86612b4c565b611f799060306129b0565b60f81b818381518110611f8e57611f8e612984565b60200101906001600160f81b031916908160001a905350611fb0600a86612b38565b9450611f50565b6001600160a01b0383166120125761200d81600880546000838152600960205260408120829055600182018355919091527ff3f7a9fe364faab93b216da50a3214154f22a0a2b415b23a84c8169e8b636ee30155565b612035565b816001600160a01b0316836001600160a01b031614612035576120358382612196565b6001600160a01b03821661204c57610a8e81612233565b826001600160a01b0316826001600160a01b031614610a8e57610a8e82826122e2565b610c77828260405180602001604052806000815250612326565b60006001600160a01b0384163b1561218b57604051630a85bd0160e11b81526001600160a01b0385169063150b7a02906120cd903390899088908890600401612b60565b602060405180830381600087803b1580156120e757600080fd5b505af1925050508015612117575060408051601f3d908101601f1916820190925261211491810190612b9d565b60015b612171573d808015612145576040519150601f19603f3d011682016040523d82523d6000602084013e61214a565b606091505b5080516121695760405162461bcd60e51b815260040161095890612ad0565b805181602001fd5b6001600160e01b031916630a85bd0160e11b149050611b55565b506001949350505050565b600060016121a384610fa4565b6121ad9190612a34565b600083815260076020526040902054909150808214612200576001600160a01b03841660009081526006602090815260408083208584528252808320548484528184208190558352600790915290208190555b5060009182526007602090815260408084208490556001600160a01b039094168352600681528383209183525290812055565b60085460009061224590600190612a34565b6000838152600960205260408120546008805493945090928490811061226d5761226d612984565b90600052602060002001549050806008838154811061228e5761228e612984565b60009182526020808320909101929092558281526009909152604080822084905585825281205560088054806122c6576122c6612bba565b6001900381819060005260206000200160009055905550505050565b60006122ed83610fa4565b6001600160a01b039093166000908152600660209081526040808320868452825280832085905593825260079052919091209190915550565b6123308383612359565b61233d6000848484612089565b610a8e5760405162461bcd60e51b815260040161095890612ad0565b6001600160a01b0382166123af5760405162461bcd60e51b815260206004820181905260248201527f4552433732313a206d696e7420746f20746865207a65726f20616464726573736044820152606401610958565b6000818152600260205260409020546001600160a01b0316156124145760405162461bcd60e51b815260206004820152601c60248201527f4552433732313a20746f6b656e20616c7265616479206d696e746564000000006044820152606401610958565b61242060008383611fb7565b6001600160a01b03821660009081526003602052604081208054600192906124499084906129b0565b909155505060008181526002602052604080822080546001600160a01b0319166001600160a01b03861690811790915590518392907fddf252ad1be2c89b69c2b068fc378daa952ba7f163c4a11628f55a4df523b3ef908290a45050565b8280546124b390612914565b90600052602060002090601f0160209004810192826124d5576000855561251b565b82601f106124ee57805160ff191683800117855561251b565b8280016001018555821561251b579182015b8281111561251b578251825591602001919060010190612500565b5061252792915061252b565b5090565b5b80821115612527576000815560010161252c565b6001600160e01b031981168114610bbc57600080fd5b60006020828403121561256857600080fd5b813561168a81612540565b60005b8381101561258e578181015183820152602001612576565b838111156115b05750506000910152565b600081518084526125b7816020860160208601612573565b601f01601f19169290920160200192915050565b60208152600061168a602083018461259f565b6000602082840312156125f057600080fd5b5035919050565b80356001600160a01b038116811461260e57600080fd5b919050565b6000806040838503121561262657600080fd5b61262f836125f7565b946020939093013593505050565b634e487b7160e01b600052604160045260246000fd5b604051601f8201601f1916810167ffffffffffffffff8111828210171561267c5761267c61263d565b604052919050565b6000602080838503121561269757600080fd5b823567ffffffffffffffff808211156126af57600080fd5b818501915085601f8301126126c357600080fd5b8135818111156126d5576126d561263d565b8060051b91506126e6848301612653565b818152918301840191848101908884111561270057600080fd5b938501935b8385101561272557612716856125f7565b82529385019390850190612705565b98975050505050505050565b60008060006060848603121561274657600080fd5b61274f846125f7565b925061275d602085016125f7565b9150604084013590509250925092565b60006020828403121561277f57600080fd5b61168a826125f7565b6000806040838503121561279b57600080fd5b6127a4836125f7565b9150602083013580151581146127b957600080fd5b809150509250929050565b600067ffffffffffffffff8311156127de576127de61263d565b6127f1601f8401601f1916602001612653565b905082815283838301111561280557600080fd5b828260208301376000602084830101529392505050565b60006020828403121561282e57600080fd5b813567ffffffffffffffff81111561284557600080fd5b8201601f8101841361285657600080fd5b611b55848235602084016127c4565b6000806000806080858703121561287b57600080fd5b612884856125f7565b9350612892602086016125f7565b925060408501359150606085013567ffffffffffffffff8111156128b557600080fd5b8501601f810187136128c657600080fd5b6128d5878235602084016127c4565b91505092959194509250565b600080604083850312156128f457600080fd5b6128fd836125f7565b915061290b602084016125f7565b90509250929050565b600181811c9082168061292857607f821691505b6020821081141561294957634e487b7160e01b600052602260045260246000fd5b50919050565b6020808252818101527f4f776e61626c653a2063616c6c6572206973206e6f7420746865206f776e6572604082015260600190565b634e487b7160e01b600052603260045260246000fd5b634e487b7160e01b600052601160045260246000fd5b600082198211156129c3576129c361299a565b500190565b60006000198214156129dc576129dc61299a565b5060010190565b60208082526031908201527f4552433732313a207472616e736665722063616c6c6572206973206e6f74206f6040820152701ddb995c881b9bdc88185c1c1c9bdd9959607a1b606082015260800190565b600082821015612a4657612a4661299a565b500390565b6020808252601f908201527f5265656e7472616e637947756172643a207265656e7472616e742063616c6c00604082015260600190565b6000816000190483118215151615612a9c57612a9c61299a565b500290565b60008351612ab3818460208801612573565b835190830190612ac7818360208801612573565b01949350505050565b60208082526032908201527f4552433732313a207472616e7366657220746f206e6f6e20455243373231526560408201527131b2b4bb32b91034b6b83632b6b2b73a32b960711b606082015260800190565b634e487b7160e01b600052601260045260246000fd5b600082612b4757612b47612b22565b500490565b600082612b5b57612b5b612b22565b500690565b6001600160a01b0385811682528416602082015260408101839052608060608201819052600090612b939083018461259f565b9695505050505050565b600060208284031215612baf57600080fd5b815161168a81612540565b634e487b7160e01b600052603160045260246000fdfea264697066735822122097a52ff5ac544077436c539998659be7be8ae4d04e4f7bda30f4fb33077fa05864736f6c63430008090033",
  "immutableReferences": {},
  "source": "/*\r\n _____ _                        _   _____      _   _ _   _\r\n|  ___| |                      | | |  ___|    | | (_) | (_)\r\n| |__ | |_ ___ _ __ _ __   __ _| | | |__ _ __ | |_ _| |_ _  ___  ___ \r\n|  __|| __/ _ \\ '__| '_ \\ / _` | | |  __| '_ \\| __| | __| |/ _ \\/ __|\r\n| |___| ||  __/ |  | | | | (_| | | | |__| | | | |_| | |_| |  __/\\__ \\\r\n\\____/ \\__\\___|_|  |_| |_|\\__,_|_| \\____/_| |_|\\__|_|\\__|_|\\___||___/\r\n                        ETERNALENTITIES.IO\r\n*/\r\npragma solidity ^0.8.7;\r\nimport \"@openzeppelin/contracts/token/ERC721/extensions/ERC721Enumerable.sol\";\r\nimport \"@openzeppelin/contracts/access/Ownable.sol\";\r\nimport \"@openzeppelin/contracts/security/ReentrancyGuard.sol\";\r\n\r\ncontract EternalEntities is ERC721Enumerable, Ownable, ReentrancyGuard{\r\n    uint256 public mintPrice = 0.1 ether;\r\n    uint256 public constant maxSupply = 10000;\r\n    uint256 public constant mintLimit = 5;\r\n    uint256 public constant presaleMintLimit = 5;\r\n    uint256 public constant reserveLimit = 200;\r\n\r\n    uint256 public reserveClaimed;\r\n    uint256 public freeMintAvailable;\r\n\r\n    bool public PresaleStarted;\r\n    bool public PublicSaleStarted;\r\n\r\n    mapping(address => uint256) public TotalMinted;\r\n    mapping(address => uint256) public FreeMinted;\r\n    \r\n    mapping(address => bool) public PresaleWhitelist;\r\n    uint256 public NrOfAddressesInWhitelist;\r\n\r\n    string public BaseURI;\r\n\r\n    constructor (string memory baseUri) public ERC721(\"EternalEntities\", \"EE\"){\r\n        BaseURI = baseUri;\r\n    }\r\n\r\n    function _baseURI() internal view override returns (string memory) {\r\n        return BaseURI;\r\n    }\r\n\r\n    function Reserve(uint nr) onlyOwner external{\r\n        require(reserveClaimed + nr <= reserveLimit, \"Cannot reserve more than allowed\");\r\n        reserveClaimed += nr;\r\n        _mint(nr, false);\r\n    }\r\n\r\n    function FreeMint() nonReentrant external{\r\n        require(freeMintAvailable > 0, \"No free mints available\");\r\n        require(FreeMinted[_msgSender()] + 1 <= 1, \"Mint exceeds max of 1 allowed per address\");\r\n        FreeMinted[_msgSender()] += 1;\r\n        freeMintAvailable -= 1;\r\n        _mint(1, true);\r\n    }\r\n\r\n    function PublicMint(uint nr) nonReentrant external payable{\r\n        require(PublicSaleStarted, \"Public minting is not active\");\r\n        require(nr <= mintLimit, \"Cannot mint more than allowed\");\r\n        require(TotalMinted[_msgSender()] + nr <= mintLimit, \"Mint exceeds max allowed per address\");\r\n        require(msg.value >= mintPrice * nr, \"Not enough eth send\");\r\n        _mint(nr, false);\r\n    }\r\n\r\n    function PresaleMint(uint nr) nonReentrant external payable{\r\n        require(PresaleStarted, \"Presale minting is not active\");\r\n        require(PresaleWhitelist[_msgSender()], \"You are not whitelisted!\");\r\n        require(nr <= presaleMintLimit, \"Cannot mint more than allowed\");\r\n        require(TotalMinted[_msgSender()] + nr <= presaleMintLimit, \"Mint exceeds max allowed per address\");\r\n        require(msg.value >= mintPrice * nr, \"Not enough eth send\");\r\n        _mint(nr, false);\r\n    }\r\n\r\n    function _mint(uint nr, bool exclude) private{\r\n        require(totalSupply() < maxSupply, \"All tokens have been minted\");\r\n        require((totalSupply() + nr) <= maxSupply, \"You cannot exceed max supply\");\r\n        for(uint256 i = 0; i < nr; i++)\r\n        {\r\n            if(!exclude) TotalMinted[_msgSender()] += 1;\r\n            _safeMint(_msgSender(), totalSupply() + 1);\r\n        }\r\n    }\r\n\r\n    function TransferEth() onlyOwner external{\r\n        require(address(this).balance > 0, \"No eth present\");\r\n        (bool onwerTransfer, ) = owner().call{value: address(this).balance}('');\r\n        require(onwerTransfer, \"Transfer to owner address failed.\");\r\n    }\r\n\r\n    function TogglePresaleStarted() onlyOwner external{\r\n        PresaleStarted = !PresaleStarted;\r\n    }\r\n\r\n    function TogglePublicSaleStarted() onlyOwner external{\r\n        PublicSaleStarted = !PublicSaleStarted;\r\n    }\r\n\r\n    function SetBaseUri(string memory baseUri) onlyOwner external{\r\n        BaseURI = baseUri;\r\n    }\r\n\r\n    function setPrice(uint256 _newPrice) onlyOwner external{\r\n        mintPrice = _newPrice;\r\n    }\r\n\r\n    function AddToWhitelist(address[] memory addresses) onlyOwner external{\r\n        for(uint256 i = 0; i < addresses.length; i++) {\r\n            PresaleWhitelist[addresses[i]] = true;\r\n            NrOfAddressesInWhitelist += 1;\r\n        }\r\n    }\r\n\r\n    function RemoveFromWhitelist(address[] memory addresses) onlyOwner external{\r\n        for(uint256 i = 0; i < addresses.length; i++) {\r\n            PresaleWhitelist[addresses[i]] = false;\r\n            NrOfAddressesInWhitelist -= 1;\r\n        }\r\n    }\r\n\r\n    function UpdateFreeMintAvailable(uint256 amount) onlyOwner external{\r\n        freeMintAvailable += amount;\r\n    }\r\n\r\n    function IsOnWhitelist(address account) public view returns(bool){\r\n        return PresaleWhitelist[account];\r\n    }\r\n\r\n    uint256 private cantSeeTheCountBitch;\r\n    //Don't be a !square\r\n    function WhatDoesThisDoExactly() nonReentrant external{\r\n        require(cantSeeTheCountBitch < 10, \"Too late motherfucker!\");\r\n        require(PresaleWhitelist[_msgSender()] == false, \"ah ah ah\");\r\n        cantSeeTheCountBitch += 1;\r\n        NrOfAddressesInWhitelist += 1;\r\n        PresaleWhitelist[_msgSender()] = true;\r\n    }\r\n}",
  "sourcePath": "C:\\GITREPOS\\EE\\SmartContracts\\contracts\\EternalEntities.sol",
  "compiler": {
    "name": "solc",
    "version": "0.8.9+commit.e5eed63a.Emscripten.clang"
  },
  "schemaVersion": "3.4.3",
  "updatedAt": "2021-10-25T09:28:33.438Z",
  "networkType": "ethereum",
  "devdoc": {
    "kind": "dev",
    "methods": {
      "approve(address,uint256)": {
        "details": "See {IERC721-approve}."
      },
      "balanceOf(address)": {
        "details": "See {IERC721-balanceOf}."
      },
      "getApproved(uint256)": {
        "details": "See {IERC721-getApproved}."
      },
      "isApprovedForAll(address,address)": {
        "details": "See {IERC721-isApprovedForAll}."
      },
      "name()": {
        "details": "See {IERC721Metadata-name}."
      },
      "owner()": {
        "details": "Returns the address of the current owner."
      },
      "ownerOf(uint256)": {
        "details": "See {IERC721-ownerOf}."
      },
      "renounceOwnership()": {
        "details": "Leaves the contract without owner. It will not be possible to call `onlyOwner` functions anymore. Can only be called by the current owner. NOTE: Renouncing ownership will leave the contract without an owner, thereby removing any functionality that is only available to the owner."
      },
      "safeTransferFrom(address,address,uint256)": {
        "details": "See {IERC721-safeTransferFrom}."
      },
      "safeTransferFrom(address,address,uint256,bytes)": {
        "details": "See {IERC721-safeTransferFrom}."
      },
      "setApprovalForAll(address,bool)": {
        "details": "See {IERC721-setApprovalForAll}."
      },
      "supportsInterface(bytes4)": {
        "details": "See {IERC165-supportsInterface}."
      },
      "symbol()": {
        "details": "See {IERC721Metadata-symbol}."
      },
      "tokenByIndex(uint256)": {
        "details": "See {IERC721Enumerable-tokenByIndex}."
      },
      "tokenOfOwnerByIndex(address,uint256)": {
        "details": "See {IERC721Enumerable-tokenOfOwnerByIndex}."
      },
      "tokenURI(uint256)": {
        "details": "See {IERC721Metadata-tokenURI}."
      },
      "totalSupply()": {
        "details": "See {IERC721Enumerable-totalSupply}."
      },
      "transferFrom(address,address,uint256)": {
        "details": "See {IERC721-transferFrom}."
      },
      "transferOwnership(address)": {
        "details": "Transfers ownership of the contract to a new account (`newOwner`). Can only be called by the current owner."
      }
    },
    "version": 1
  },
  "userdoc": {
    "kind": "user",
    "methods": {},
    "version": 1
  }
}